:100000003FC059C058C057C056C055C054C053C057
:1000100052C0D1C050C04FC04EC04DC04CC04BC0EC
:100020004AC049C048C000000000000000000003B2
:100030000406000000000000000001020408102077
:10004000408001020408102001020408102004046A
:100050000404040404040202020202020303030370
:1000600003030000000036003300300000000000F1
:100070003800350032000000000037003400310045
:1000800011241FBECFE5D4E0DEBFCDBF10E0A0E657
:10009000B0E0E6EFF4E002C005900D92A036B107A3
:1000A000D9F720E0A0E6B0E001C01D92A936B20762
:1000B000E1F714D21EC2A4CF61E089E078D161E0FB
:1000C0008AE075D161E08BE072D162E082E06FD1AD
:1000D00062E083E06CD162E084E069D162E085E0B7
:1000E00066C185E0D2D1892B09F059C082E0CDD11B
:1000F000892B09F047C084E0C8D1892BE9F482E05C
:10010000C4D1892BC9F467ED70E08AE007D182E0A1
:10011000BCD1892BE1F384E0B8D1892BC1F383E012
:10012000B4D1892BA1F360E070E08AE0F7D068ECED
:1001300070E080E090E0ADD084E0A7D1892BB1F2EF
:1001400082E0A3D1892B91F661E08BE069D164E86C
:1001500073E080E090E09DD082E097D1892B71F42C
:1001600067ED70E08AE0DAD068EE73E080E090E05E
:1001700090D060E070E08AE0D1D0EECF60E08BE01C
:100180004FD1B4CF83E081D1892B89F465EF70E042
:100190008AE0C4D0F7CF67ED70E08AE0BFD082E09C
:1001A00074D1892BC1F383E070D1892BA1F360E076
:1001B00070E08AE0B3C01F920F920FB60F92112425
:1001C0002F933F938F939F93AF93BF938091610041
:1001D00090916200A0916300B09164003091600042
:1001E00023E0230F2D3720F40196A11DB11D05C07A
:1001F00026E8230F0296A11DB11D20936000809375
:10020000610090936200A0936300B09364008091BA
:10021000650090916600A0916700B091680001961A
:10022000A11DB11D8093650090936600A0936700A7
:10023000B0936800BF91AF919F918F913F912F91A3
:100240000F900FBE0F901F9018953FB7F8948091B4
:10025000650090916600A0916700B091680022B798
:1002600008B600FE05C02F3F19F00196A11DB11D73
:100270003FBF6627782F892F9A2F620F711D811D2E
:10028000911D42E0660F771F881F991F4A95D1F78D
:100290000895CF92DF92EF92FF92CF93DF936B019D
:1002A0007C01D3DFEB01C114D104E104F10479F046
:1002B0001FD1CBDF6C1B7D0B683E7340A0F381E048
:1002C000C81AD108E108F108C851DC4FECCFDF9122
:1002D000CF91FF90EF90DF90CF900895789483B7FF
:1002E000826083BF83B7816083BF89B7816089BF24
:1002F0001EBC8EB582608EBD8EB581608EBD8FB501
:1003000081608FBD85B5846085BD85B5806485BD00
:10031000329A319A309A379A1AB808951F93CF9328
:10032000DF93182FEB0161E042D0209711F460E0D9
:1003300004C0CF3FD10531F461E0812FDF91CF912F
:100340001F916EC0E12FF0E0EA5DFF4FE491E430D1
:1003500051F0E63071F0E33089F48FB580688FBDDD
:10036000DBBDCABD0FC08FB580628FBDD9BDC8BD12
:1003700009C085B5806285BDC3BD04C0C038D10544
:10038000DCF6D5CFDF91CF911F910895843039F0FD
:10039000863049F0833051F48FB58F7702C08FB526
:1003A0008F7D8FBD089585B58F7D85BD0895CF93D1
:1003B000DF9390E0FC01E65CFF4F2491FC01E25BDF
:1003C000FF4F8491882349F190E0880F991FFC0129
:1003D000EA58FF4FA591B49184599F4FFC01C591F4
:1003E000D4919FB7611108C0F8948C912095822315
:1003F0008C93888182230AC0623051F4F8948C91E6
:10040000322F309583238C938881822B888304C07C
:10041000F8948C91822B8C939FBFDF91CF9108959C
:100420000F931F93CF93DF931F92CDB7DEB7282F83
:1004300030E0F901EA5DFF4F8491F901E65CFF4F7E
:100440001491F901E25BFF4F04910023C1F088236E
:1004500019F069839BDF6981E02FF0E0EE0FFF1F49
:10046000E459FF4FA591B4919FB7F8948C91611115
:1004700003C01095812301C0812B8C939FBF0F90E7
:10048000DF91CF911F910F910895CF93DF93282F84
:1004900030E0F901EA5DFF4F8491F901E65CFF4F1E
:1004A000D491F901E25BFF4FC491CC2389F0811113
:1004B0006DDFEC2FF0E0EE0FFF1FEE59FF4FA5911F
:1004C000B4912C912D2381E090E021F480E002C0D2
:1004D00080E090E0DF91CF9108950895FFDEFDDF89
:1004E000EBDDC0E0D0E0FDDD2097E9F389DDFBCF57
:0604F0000895F894FFCF0F
:00000001FF
