:100000000C9462000C948A000C948A000C948A0070
:100010000C948A000C948A000C948A000C948A0038
:100020000C948A000C948A000C948A000C948A0028
:100030000C948A000C948A000C948A000C948A0018
:100040000C9457060C948A000C9425060C94FF051A
:100050000C948A000C948A000C948A000C948A00F8
:100060000C94A1060C948A00000000080002010014
:100070000003040700000000000000000000000072
:10008000250028002B0000000000240027002A0083
:1000900000000000230026002900040404040404D6
:1000A0000404020202020202030303030303010227
:1000B00004081020408001020408102001020408F6
:1000C0001020050811241FBECFEFD8E0DEBFCDBF42
:1000D00011E0A0E0B1E0E2E1F9E102C005900D928B
:1000E000AE36B107D9F722E0AEE6B1E001C01D920D
:1000F000AA3EB207E1F710E0C2E6D0E004C02197C3
:10010000FE010E94810CC136D107C9F70E944D083B
:100110000C94870C0C94000008950895AF92BF9240
:10012000CF92DF92EF92FF920F931F93CF93DF93C3
:100130006C017B018B01040F151FEB015E01AE18F2
:10014000BF08C017D10759F06991D601ED91FC9114
:100150000190F081E02DC6010995892B79F7C50141
:10016000DF91CF911F910F91FF90EF90DF90CF9093
:10017000BF90AF900895FC01538D448D252F30E042
:10018000842F90E0821B930B541710F0CF960895A4
:1001900001970895FC01918D828D981761F0A28DD1
:1001A000AE0FBF2FB11D5D968C91928D9F5F9F7397
:1001B000928F90E008958FEF9FEF0895FC01918D4D
:1001C000828D981731F0828DE80FF11D858D90E0BA
:1001D00008958FEF9FEF0895FC01918D228D892F57
:1001E00090E0805C9F4F821B91098F73992708953F
:1001F00085E392E00E94EC0021E0892B09F420E0E5
:10020000822F089580E090E0892B29F00E94F80069
:1002100081110C9400000895FC01A48DA80FB92F42
:10022000B11DA35ABF4F2C91848D90E001968F731E
:100230009927848FA689B7892C93A089B1898C913D
:10024000837080648C93938D848D981306C002888C
:10025000F389E02D80818F7D80830895EF92FF9256
:100260000F931F93CF93DF93EC0181E0888F9B8DD9
:100270008C8D98131AC0E889F989808185FF15C093
:100280009FB7F894EE89FF896083E889F9898081B6
:100290008370806480839FBF81E090E0DF91CF9185
:1002A0001F910F91FF90EF900895F62E0B8D10E0A7
:1002B0000F5F1F4F0F731127E02E8C8D8E110CC016
:1002C0000FB607FCFACFE889F989808185FFF5CF61
:1002D000CE010E940C01F1CFEB8DEC0FFD2FF11D33
:1002E000E35AFF4FF0829FB7F8940B8FEA89FB899E
:1002F00080818062CFCFCF93DF93EC01888D8823FC
:10030000B9F0AA89BB89E889F9898C9185FD03C078
:10031000808186FD0DC00FB607FCF7CF8C9185FF5D
:10032000F2CF808185FFEDCFCE010E940C01E9CF95
:10033000DF91CF91089590E0FC01E859FF4F24919F
:10034000FC01E255FF4F3491FC01E656FF4FE4916A
:10035000EE23C9F0222339F0233001F1A8F4213033
:1003600019F1223029F1F0E0EE0FFF1FE458FF4FA2
:10037000A591B4918FB7F894EC91611126C0309596
:100380003E233C938FBF08952730A9F02830C9F051
:10039000243049F7809180008F7D03C080918000D8
:1003A0008F7780938000DFCF84B58F7784BDDBCFDC
:1003B00084B58F7DFBCF8091B0008F778093B000A4
:1003C000D2CF8091B0008F7DF9CF3E2BDACF3FB7EF
:1003D000F8948091250290912602A0912702B09175
:1003E000280226B5A89B05C02F3F19F00196A11D34
:1003F000B11D3FBFBA2FA92F982F8827BC01CD016F
:10040000620F711D811D911D42E0660F771F881FCD
:10041000991F4A95D1F708958F929F92AF92BF92FC
:10042000CF92DF92EF92FF924B015C010E94E701B5
:100430006B017C010E94E7016C197D098E099F09FF
:10044000683E734081059105A8F321E0821A910866
:10045000A108B10888EEC80E83E0D81EE11CF11C8B
:1004600081149104A104B10429F7FF90EF90DF906B
:10047000CF90BF90AF909F908F9008952091D6011C
:10048000260F3327331F21323105ECF42091FA0176
:10049000FC0190E080E0243069F082E00895A091B2
:1004A000D6012191AC014A545E4FA40FB52FB11D66
:1004B0002C930196861798F38091D601680F60936C
:1004C000D60180E0089581E008951092FA0181E05C
:1004D0008093FC011092FB0161E082E10E949B018C
:1004E00061E083E10E949B01E9EBF0E080818E7F77
:1004F000808380818D7F808388E48093B80085E449
:100500008093BC000895CF93DF9391E09093B50161
:100510008823B9F0C091B800D091BA008091BC0096
:100520008A7B8093BC0060E082E10E949B0160E0D6
:1005300083E10E949B010E946502D093BA00C093A0
:10054000B800DF91CF9108950895E0913002809135
:100550002F02E81730F4F0E0E057FE4F808190E082
:1005600008958FEF9FEF08959091300280912F02B0
:100570002FEF3FEF981748F4E92FF0E0E057FE4FD8
:10058000208130E09F5F90933002C90108958091EF
:100590002F0290913002891B990B0895CF92DF9220
:1005A000EF92FF920F931F93CF93DF937C01CB01C8
:1005B0008A0120918F01222389F0EB016B01C40E87
:1005C000D51ECC15DD0569F06991D701ED91FC913F
:1005D0000190F081E02DC7010995F3CF642F0E94AF
:1005E0003E02C801DF91CF911F910F91FF90EF90D4
:1005F000DF90CF900895CF93DF931F92CDB7DEB7F2
:10060000698320918F012223F9F020912D0220325D
:1006100058F021E030E0FC013383228390E080E059
:100620000F90DF91CF91089580912E02E82FF0E096
:10063000E159FE4F998190838F5F80932E028093C2
:100640002D0281E090E0ECCF61E0CE0101960E94A6
:100650003E02F7CFCF92DF92EF92FF920F931F935C
:10066000CF93DF93FC01C48121E020938F01C093DD
:100670006E0110922E0210922D028385682B82ED5E
:1006800092E00E94FB02D0912D02D13208F092C07C
:100690000E94E7016B017C018091FA01811165C024
:1006A00082E08093FA0181E08093FC018FEF8093D8
:1006B000F90110921E02D0931D02AFE6B1E0EDEFFA
:1006C000F1E080E0D81385C010921F0280911F02D4
:1006D000CC0FC82BC0931F028091FB01813009F021
:1006E0007CC01092FB010E94E7016B017C018091AC
:1006F0001F028093BB008091B1019091B201A09143
:10070000B301B091B401892B8A2B8B2B99F00E94F5
:10071000E7010091B1011091B2012091B301309134
:10072000B4016C197D098E099F0906171707280760
:100730003907E0F18091BC0083FDD9CF85EC80932F
:10074000BC000E94E7016B017C018091FA018230BC
:1007500009F445C08091F9018F3F61F18091F90161
:10076000803241F18091F90125C08091B1019091D1
:10077000B201A091B301B091B401892B8A2B8B2BCC
:1007800009F48ACF0E94E7010091B1011091B201F2
:100790002091B3013091B4016C197D098E099F0934
:1007A000061717072807390708F076CF8091B001A0
:1007B0000E94830210922E0210922D0210928F013D
:1007C000DF91CF911F910F91FF90EF90DF90CF902D
:1007D00008959D9191938F5F75CF85EEB0CF8091F5
:1007E000B1019091B201A091B301B091B401892BF4
:1007F0008A2B8B2B09F4A9CF0E94E7010091B1014C
:100800001091B2012091B3013091B4016C197D09AE
:100810008E099F09061717072807390708F095CF93
:10082000C5CF089590E080E00895FB01019000207D
:10083000E9F73197AF01461B570BDC01ED91FC91B5
:100840000280F381E02D09948F929F92AF92BF9224
:10085000EF92FF920F931F93CF93DF93CDB7DEB745
:10086000A1970FB6F894DEBF0FBECDBF7C01FA0191
:10087000CB0119A2223008F42AE08E010F5D1F4F30
:10088000822E912CB12CA12CBF01A50194010E94B4
:100890005F0CF901CA016A300CF5605DD8016E93F6
:1008A0008D01232B242B252B79F790E080E01097E6
:1008B00021F0BD01C7010E941504A1960FB6F8945E
:1008C000DEBF0FBECDBFDF91CF911F910F91FF9083
:1008D000EF90BF90AF909F908F900895695CDECFAE
:1008E0002F923F924F925F926F927F928F929F9240
:1008F000AF92BF92CF92DF92EF92FF921F93CF936E
:10090000DF93EC016A017B01722EAB019601CB01F2
:10091000B6010E945A0C68E371E0811126C04601BD
:100920005701E894B7F82FEF3FEF4FE75FE7C501B6
:10093000B4010E945A0C81110CC02FEF3FEF4FE71A
:100940005FE7C501B4010E94900A6CE371E01816DC
:1009500064F02FEF3FEF4FE75FE4C701B6010E945D
:10096000E80B1816B4F460E471E0CE01DF91CF918A
:100970001F91FF90EF90DF90CF90BF90AF909F902E
:100980008F907F906F905F904F903F902F900C943E
:1009900015042FEF3FEF4FE75FECC701B6010E9450
:1009A000900A87FDE0CF20E030E0A901C701B60141
:1009B0000E94900A312C212C87FF0DC0E881F9811B
:1009C0000190F081E02D6DE2CE0109951C01F7FA4E
:1009D000F094F7F8F09410E060E070E080E09FE3BE
:1009E000711641F020E030E040E251E40E94950AA7
:1009F0001F5FF6CFA70196010E94240A2B013C013C
:100A00000E94070B4B015C012AE0BC01A401CE014E
:100A10000E9424047C01E20CF31C1123E1F1C501C6
:100A2000B4010E94360B9B01AC01C301B2010E94CC
:100A3000230A4B015C01E881F9810190F081E02DEE
:100A40006EE2CE010995E80EF91E115020F120E06A
:100A500030E040E251E4C501B4010E94ED0B2B01EE
:100A60003C010E94070B4B01B12CA12C2AE0B501DF
:100A7000A401CE010E942404E80EF91EC501B401B0
:100A80000E94360B9B01AC01C301B2010E94230AF4
:100A90004B015C01DACFC701DF91CF911F91FF902D
:100AA000EF90DF90CF90BF90AF909F908F907F900E
:100AB0006F905F904F903F902F9008950F931F93EA
:100AC000CF938C01C62F0E942A036C2F6460C8014B
:100AD0000E942A036C2F6B7FC8010E942A0383ECBB
:100AE00090E00197F1F7CF911F910F9108950F9327
:100AF0001F93CF93DF938C01D62FC42F607F642B7D
:100B00000E945E0580E1D89FB00111246C2BC801C2
:100B1000DF91CF911F910F910C945E05CF93DF93DE
:100B2000CDB7DEB728970FB6F894DEBF0FBECDBFA6
:100B300098E0E0E0F1E0DE01119601900D929A95C7
:100B4000E1F79091E602961708F46FEF262F30E058
:100B5000220F331F41E050E04C0F5D1F240F351F63
:100B6000F9016081680F606840E08EED92E02896A0
:100B70000FB6F894DEBF0FBECDBFDF91CF910C94BE
:100B8000770541E00E94770581E090E0089585EDCA
:100B90008093BC008091B1019091B201A091B3010A
:100BA000B091B4010796A11DB11D23E0B695A7959C
:100BB000979587952A95D1F72091BC0024FD03C015
:100BC0001092FA0108954091B1015091B2016091E3
:100BD000B3017091B401452B462B472B69F3009765
:100BE000A105B10541F025E32A95F1F70000019731
:100BF000A109B109E1CF8091B0010C9483021F9249
:100C00000F920FB60F9211242F933F934F935F9340
:100C10006F937F938F939F93AF93BF93EF93FF93C4
:100C200085E392E00E940C01FF91EF91BF91AF919B
:100C30009F918F917F916F915F914F913F912F91F4
:100C40000F900FBE0F901F9018951F920F920FB626
:100C50000F9211242F938F939F93EF93FF93E09123
:100C60004502F09146028081E0914B02F0914C02E6
:100C700082FD1BC0908180914E028F5F8F73209107
:100C80004F02821741F0E0914E02F0E0EB5CFD4F25
:100C9000958F80934E02FF91EF919F918F912F91AD
:100CA0000F900FBE0F901F9018958081F4CF1F9268
:100CB0000F920FB60F9211242F933F938F939F9310
:100CC000AF93BF938091210290912202A0912302C1
:100CD000B09124023091200223E0230F2D3758F5E4
:100CE0000196A11DB11D20932002809321029093B3
:100CF0002202A0932302B0932402809125029091B6
:100D00002602A0912702B09128020196A11DB11DD3
:100D10008093250290932602A0932702B093280285
:100D2000BF91AF919F918F913F912F910F900FBEE7
:100D30000F901F90189526E8230F0296A11DB11D54
:100D4000D2CF1F920F920FB60F9211242F933F9381
:100D50004F935F936F937F938F939F93AF93BF93C3
:100D6000EF93FF938091B900887F803609F44AC0E1
:100D7000F0F5883209F4A7C018F5803109F49BC05A
:100D8000B8F4882309F4F9C0883009F494C0FF91BD
:100D9000EF91BF91AF919F918F917F916F915F91F3
:100DA0004F913F912F910F900FBE0F901F9018956C
:100DB000883109F488C0803251F78093F90114C05A
:100DC000803409F49DC040F48033B9F38833F9F6D8
:100DD0008093F90185ECB0C0803509F485C0883571
:100DE00009F496C0883499F60E94C705D0CF883997
:100DF00009F48CC038F5883729F050F4883611F0A2
:100E0000803729F683E08093FA011092F80157C0E9
:100E1000883809F47BC0803919F0803809F0B7CFE1
:100E20008091F801803208F071C0E091F80181E012
:100E30008E0F8093F8018091BB00F0E0E852FE4FE6
:100E400080833DC0803B39F0E0F4803A09F479C0FA
:100E5000883A09F09CCF84E08093FA011092D70180
:100E60001092D601E0912B02F0912C02099580910D
:100E7000D60181110FC081E08093D6011092B60196
:100E800009C0803C09F4A6CF883C09F4A3CF883B75
:100E900009F07DCFE091D70181E08E0F8093D701DB
:100EA000F0E0EA54FE4F80818093BB009091D7011F
:100EB0008091D60129C080911F028093BB0085ECF0
:100EC0008093BC0064CF90911E0280911D02981700
:100ED00058F5E0911E0281E08E0F80931E02F0E033
:100EE000E350FE4F8081E9CFE0911E0281E08E0F3A
:100EF00080931E028091BB00F0E0E350FE4F8083A0
:100F000090911E0280911D029817C8F285E8D8CFF3
:100F1000E0911E0281E08E0F80931E028091BB0043
:100F2000F0E0E350FE4F80838091FC0181115CCFA3
:100F300081E08093FB0184EA8093BC001092FA0167
:100F400026CF85EC8093BC001092FA018091F801C5
:100F5000803230F4E091F801F0E0E852FE4F108268
:100F60006091F80170E0E0912902F0912A0288ED89
:100F700091E009951092F8010ACF1092F90134CF4F
:100F8000CF92DF92EF92FF920F931F93E82FF92FEA
:100F900005C0015011092109310961F190819623A1
:100FA0009417B9F305C0015011092109310911F154
:100FB000908196239413F7CFC12CD12CE12CF12CE6
:100FC0000AC08FEFC81AD80AE80AF80A0C151D05DE
:100FD0002E053F0579F080818623841791F36C2DCF
:100FE0007D2D8E2D9F2D1F910F91FF90EF90DF9003
:100FF000CF90089560E070E080E090E01F910F9145
:10100000FF90EF90DF90CF900895E5E3F2E0138238
:10101000128288EE93E0A0E0B0E084839583A683FB
:10102000B7832CE031E03183208325EC30E0358735
:10103000248724EC30E03787268720EC30E0318BA2
:10104000208B21EC30E0338B228B22EC30E0358B8F
:10105000248B26EC30E0378B268B118E128E138E6C
:10106000148EE2EDF2E01382128284839583A683CC
:10107000B7838EE191E091838083EEEDF2E01382FD
:10108000128280E391E09183808380E2848380E117
:10109000818782E0828713860895789484B5826080
:1010A00084BD84B5816084BD85B5826085BD85B50C
:1010B000816085BD80916E00816080936E0010928A
:1010C0008100809181008260809381008091810005
:1010D0008160809381008091800081608093800096
:1010E0008091B10084608093B1008091B0008160F4
:1010F0008093B00080917A00846080937A00809120
:101100007A00826080937A0080917A008160809377
:101110007A0080917A00806880937A001092C100F2
:101120001092300210922F0210922E0210922D0275
:101130000E9465028CE890E090932C0280932B0231
:101140008DE890E090932A02809329021092E302A6
:101150008091E802823018F098E09093E302809347
:10116000E60262E370E080E090E00E940C02609191
:10117000E9028EED92E00E942A0368EE73E080E0BF
:1011800090E00E940C0260E38EED92E00E945E050A
:10119000CBE4D6E4CE010197F1F760E38EED92E067
:1011A0000E945E052197F1F760E38EED92E00E94C8
:1011B0005E0583E592E00197F1F760E28EED92E043
:1011C0000E945E056091E302606240E08EED92E075
:1011D0000E94770584E08093E40240E06CE08EEDAD
:1011E00092E00E94770540E061E08EED92E00E947F
:1011F0007705CBE3DFE1CE010197F1F712E0109321
:10120000E50240E066E08EED92E00E94770540E066
:1012100062E08EED92E00E9477052197F1F788E079
:101220008093E90260E08EED92E00E942A03E09153
:101230004502F09146021083E0914102F091420292
:101240001082E0914302F09144028FEC808310926F
:101250004D02E0914902F0914A0286E08083E091DC
:101260004702F0914802808180618083E0914702CB
:10127000F0914802808188608083E0914702F0917C
:101280004802808180688083E0914702F0914802A3
:1012900080818F7D8083E7EBF0E02491E3EAF0E04A
:1012A0008491882399F090E0880F991FFC01EA57F8
:1012B000FF4FA591B491FC01E458FF4F85919491A3
:1012C0008FB7F894EC91E22BEC938FBFC6EBD0E094
:1012D000FE01249152EAE52E50E0F52EF7018491AB
:1012E0008823C9F090E0880F991FFC01EA57FF4F4F
:1012F000A591B491FC01E458FF4F459154913FB73B
:10130000F8949C91822F809598239C93FA01908168
:10131000892380833FBF93E2C92ED12C2BE3A22ED9
:101320002FE1B22E30E0832E30E0932E61E089E091
:101330000E949B01C6010197F1F760E089E00E94DD
:101340009B01FE016491F7018491E82FF0E0EE0F1C
:10135000FF1FE057FF4F8591949100E412E42FE0C6
:1013600030E0462F0E94C007611571058105910587
:1013700029F06F5F7F4F8F4F9F4F9F700E94360BFA
:1013800026E933E44BE85CE30E94ED0B6093310205
:1013900070933202809333029093340264E471E0DC
:1013A00085E392E00E94150440913102509132028F
:1013B000609133027091340222E085E392E00E9452
:1013C000700466E571E085E392E00E94150461E037
:1013D00082E00E948E056AE571E08EED92E00E9447
:1013E000150440E061E08EED92E00E947705C501B2
:1013F0000197F1F760E080E00E948E0560E671E001
:101400008EED92E00E94150440913102509132021B
:10141000609133027091340222E08EED92E00E94DE
:1014200070046CE474E080E090E00E940C0281148F
:10143000910409F47BCF0E94F800882309F476CF49
:101440000E94000073CF5058BB27AA270E943B0A76
:101450000C94AE0B0E94A00B38F00E94A70B20F05A
:1014600039F49F3F19F426F40C949D0B0EF4E0958B
:10147000E7FB0C94970BE92F0E94BF0B58F3BA17A8
:10148000620773078407950720F079F4A6F50C949A
:10149000E10B0EF4E0950B2EBA2FA02D0B01B90134
:1014A00090010C01CA01A0011124FF27591B99F0DA
:1014B000593F50F4503E68F11A16F040A22F232FE6
:1014C000342F4427585FF3CF469537952795A79536
:1014D000F0405395C9F77EF41F16BA0B620B730BDD
:1014E000840BBAF09150A1F0FF0FBB1F661F771F4E
:1014F000881FC2F70EC0BA0F621F731F841F48F403
:10150000879577956795B795F7959E3F08F0B0CF8B
:101510009395880F08F09927EE0F97958795089572
:101520000E94730B08F481E008950E94A90A0C94AC
:10153000AE0B0E94A70B58F00E94A00B40F029F4BC
:101540005F3F29F00C94970B51110C94E20B0C9413
:101550009D0B0E94BF0B68F39923B1F3552391F3C0
:10156000951B550BBB27AA2762177307840738F012
:101570009F5F5F4F220F331F441FAA1FA9F335D06F
:101580000E2E3AF0E0E832D091505040E695001C23
:10159000CAF72BD0FE2F29D0660F771F881FBB1FDD
:1015A000261737074807AB07B0E809F0BB0B802DBB
:1015B000BF01FF2793585F4F3AF09E3F510578F0E7
:1015C0000C94970B0C94E20B5F3FE4F3983ED4F33A
:1015D000869577956795B795F7959F5FC9F7880FBB
:1015E000911D9695879597F90895E1E0660F771F0D
:1015F000881FBB1F621773078407BA0720F0621B9E
:10160000730B840BBA0BEE1F88F7E09508950E94C8
:10161000C70B88F09F5798F0B92F9927B751B0F0B2
:10162000E1F0660F771F881F991F1AF0BA95C9F766
:1016300014C0B13091F00E94E10BB1E008950C9418
:10164000E10B672F782F8827B85F39F0B93FCCF3CB
:10165000869577956795B395D9F73EF490958095E3
:10166000709561957F4F8F4F9F4F0895E89409C003
:1016700097FB3EF490958095709561957F4F8F4FC5
:101680009F4F9923A9F0F92F96E9BB279395F695DB
:10169000879577956795B795F111F8CFFAF4BB0F59
:1016A00011F460FF1BC06F5F7F4F8F4F9F4F16C0BD
:1016B000882311F096E911C0772321F09EE8872F47
:1016C000762F05C0662371F096E8862F70E060E003
:1016D0002AF09A95660F771F881FDAF7880F96957C
:1016E000879597F90895990F0008550FAA0BE0E820
:1016F000FEEF16161706E807F907C0F012161306D4
:10170000E407F50798F0621B730B840B950B39F413
:101710000A2661F0232B242B252B21F408950A2679
:1017200009F4A140A6958FEF811D811D089597F9B9
:101730009F6780E870E060E008959FEF80EC089577
:1017400000240A94161617061806090608950024A0
:101750000A9412161306140605060895092E03941A
:10176000000C11F4882352F0BB0F40F4BF2B11F48E
:1017700060FF04C06F5F7F4F8F4F9F4F089557FDED
:101780009058440F551F59F05F3F71F04795880FEF
:1017900097FB991F61F09F3F79F087950895121686
:1017A00013061406551FF2CF4695F1DF08C0161632
:1017B00017061806991FF1CF8695710561050894E3
:1017C0000895E894BB2766277727CB0197F90895FA
:1017D0000E94730B08F48FEF08950E94000C0C9484
:1017E000AE0B0E94A00B38F00E94A70B20F09523AF
:1017F00011F00C94970B0C949D0B11240C94E20B9C
:101800000E94BF0B70F3959FC1F3950F50E0551FD9
:10181000629FF001729FBB27F00DB11D639FAA2745
:10182000F00DB11DAA1F649F6627B00DA11D661F94
:10183000829F2227B00DA11D621F739FB00DA11DB5
:10184000621F839FA00D611D221F749F3327A00D6F
:10185000611D231F849F600D211D822F762F6A2F0B
:1018600011249F5750409AF0F1F088234AF0EE0F70
:10187000FF1FBB1F661F771F881F91505040A9F79D
:101880009E3F510580F00C94970B0C94E20B5F3F48
:10189000E4F3983ED4F3869577956795B795F795D9
:1018A000E7959F5FC1F7FE2B880F911D9695879551
:1018B00097F908950E94730B880B990B0895A1E284
:1018C0001A2EAA1BBB1BFD010DC0AA1FBB1FEE1FBA
:1018D000FF1FA217B307E407F50720F0A21BB30B05
:1018E000E40BF50B661F771F881F991F1A9469F781
:1018F00060957095809590959B01AC01BD01CF01DD
:101900000895EE0FFF1F0590F491E02D0994F894CF
:02191000FFCF07
:101912000000400014005400000000002E018E0060
:10192200BB007B01EC00CA00DE0000000000FB02ED
:10193200CE021204A402C702B402A50200000000F3
:10194200C1058E00120411046E616E00696E66009C
:101952006F7666000A4F646C6567C5826FC59BC46B
:10196200873A200A200020636D0053544F50210013
:0E1972004F646C6567C5826FC59B3A2000000C
:00000001FF
