:1000000044C05EC05DC05CC05BC05AC059C058C02F
:1000100057C0D7C055C054C053C052C051C050C0C3
:100020004FC04EC04DC000000000000000000004A2
:1000300005070000000000000000000000010204AD
:10004000081020408001020408102001020408105A
:100050002040804004040404040404040202020258
:10006000020203030303030302020300000000363D
:10007000003300300000000000380035003200007E
:100080000000003700340031000011241FBECFE50E
:10009000D4E0DEBFCDBF10E0A0E6B0E0ECE1F5E0DB
:1000A00002C005900D92A036B107D9F720E0A0E676
:1000B000B0E001C01D92A936B207E1F722D22CC2EE
:1000C0009FCF61E089E08BD161E08AE088D161E077
:1000D0008BE085D162E082E082D162E083E07FD173
:1000E00062E084E07CD162E085E079C185E0E0D126
:1000F000892B09F059C082E0DBD1892B09F047C078
:1001000084E0D6D1892BE9F482E0D2D1892BC9F4DD
:1001100060EF70E08AE01BD182E0CAD1892BE1F365
:1001200084E0C6D1892BC1F383E0C2D1892BA1F32E
:1001300070E060E08AE00BD168EC70E080E090E075
:10014000B0D084E0B5D1892BB1F282E0B1D1892B56
:1001500091F661E08BE07FD164E873E080E090E0AD
:10016000A0D082E0A5D1892B71F460EF70E08AE025
:10017000EED068EE73E080E090E093D070E060E055
:100180008AE0E5D0EECF60E08BE065D1B4CF83E0CC
:100190008FD1892B29F460EF70E08AE0D8D0F7CFB7
:1001A00070E060E08AE0D3C082E082D1892B21F048
:1001B00083E07ED1892BA1F760EF70E08AE0C7D0A1
:1001C000F3CF1F920F920FB60F9211242F933F93EC
:1001D0008F939F93AF93BF93809161009091620042
:1001E000A0916300B09164003091600023E0230F80
:1001F0002D3758F50196A11DB11D20936000809305
:10020000610090936200A0936300B09364008091BA
:10021000650090916600A0916700B091680001961A
:10022000A11DB11D8093650090936600A0936700A7
:10023000B0936800BF91AF919F918F913F912F91A3
:100240000F900FBE0F901F90189526E8230F02966F
:10025000A11DB11DD2CF3FB7F89480916500909158
:100260006600A0916700B091680022B708B600FE52
:1002700005C02F3F19F00196A11DB11D3FBFBA2F38
:10028000A92F982F8827BC01CD01620F711D811DF8
:10029000911D42E0660F771F881F991F4A95D1F77D
:1002A00008958F929F92AF92BF92CF92DF92EF927A
:1002B000FF926B017C01CFDF4B015C01C114D104C3
:1002C000E104F104D9F027D1C6DF681979098A0958
:1002D0009B09683E73408105910580F321E0C21AB5
:1002E000D108E108F10888EE880E83E0981EA11C71
:1002F000B11CC114D104E104F10431F7FF90EF9077
:10030000DF90CF90BF90AF909F908F90089578949A
:1003100083B7826083BF83B7816083BF89B7816001
:1003200089BF1EBC8EB582608EBD8EB581608EBDCC
:100330008FB581608FBD85B5846085BD85B58064CE
:1003400085BD329A319A309A379A1AB808951F9318
:10035000CF93DF93182FEB0161E041D0209731F468
:1003600060E0812FDF91CF911F9175C0CF3FD10504
:1003700011F461E0F6CFE12FF0E0EA5DFF4FE49188
:10038000E53069F0E73089F0E430A1F48FB580689A
:100390008FBDDBBDCABDDF91CF911F9108958FB591
:1003A00080628FBDD9BDC8BDF6CF85B5806285BDE1
:1003B000C3BDF1CFC038D105E4F6D2CF853041F0CE
:1003C000873049F0843051F48FB58F778FBD089511
:1003D0008FB58F7DFBCF85B58F7D85BD0895CF937C
:1003E000DF9390E0FC01E35CFF4F24918C5A9F4F18
:1003F000FC0184918823C9F090E0880F991FFC01CB
:10040000E158FF4FA591B491FC01EB58FF4FC59106
:10041000D49161110DC09FB7F8948C9120958223DF
:100420008C938881282328839FBFDF91CF910895E3
:10043000623051F49FB7F8943C91822F80958323CA
:100440008C93E8812E2BEFCF8FB7F894EC912E2B65
:100450002C938FBFEACF1F93CF93DF93282F30E0E9
:10046000F901EA5DFF4F8491F901E35CFF4FD491FC
:10047000F901EC5AFF4FC491CC23A1F0162F811142
:100480009DDFEC2FF0E0EE0FFF1FEB58FF4FA59123
:10049000B4918FB7F894EC91111108C0D095DE2378
:1004A000DC938FBFDF91CF911F910895DE2BF8CFA2
:1004B000CF93DF93282F30E0F901EA5DFF4F84915D
:1004C000F901E35CFF4FD491F901EC5AFF4FC4915D
:1004D000CC2399F0811172DFEC2FF0E0EE0FFF1FBB
:1004E000E559FF4FA591B491EC91ED2381E090E0A7
:1004F00009F480E0DF91CF91089580E090E0FACF99
:10050000089505DFFDDFDDDDC0E0D0E0EFDD209701
:0C051000E9F376DDFBCF0895F894FFCFEF
:00000001FF
